{
  "_format": "hh-sol-artifact-1",
  "contractName": "Election",
  "sourceName": "contracts/Election.sol",
  "abi": [
    {
      "inputs": [
        {
          "internalType": "address",
          "name": "authority",
          "type": "address"
        },
        {
          "internalType": "string",
          "name": "name",
          "type": "string"
        },
        {
          "internalType": "string",
          "name": "description",
          "type": "string"
        }
      ],
      "stateMutability": "nonpayable",
      "type": "constructor"
    },
    {
      "inputs": [
        {
          "internalType": "string",
          "name": "candidate_name",
          "type": "string"
        },
        {
          "internalType": "string",
          "name": "candidate_description",
          "type": "string"
        },
        {
          "internalType": "string",
          "name": "imgHash",
          "type": "string"
        },
        {
          "internalType": "string",
          "name": "email",
          "type": "string"
        }
      ],
      "name": "addCandidate",
      "outputs": [],
      "stateMutability": "nonpayable",
      "type": "function"
    },
    {
      "inputs": [
        {
          "internalType": "uint8",
          "name": "",
          "type": "uint8"
        }
      ],
      "name": "candidates",
      "outputs": [
        {
          "internalType": "string",
          "name": "candidate_name",
          "type": "string"
        },
        {
          "internalType": "string",
          "name": "candidate_description",
          "type": "string"
        },
        {
          "internalType": "string",
          "name": "imgHash",
          "type": "string"
        },
        {
          "internalType": "uint8",
          "name": "voteCount",
          "type": "uint8"
        },
        {
          "internalType": "string",
          "name": "email",
          "type": "string"
        }
      ],
      "stateMutability": "view",
      "type": "function"
    },
    {
      "inputs": [
        {
          "internalType": "uint8",
          "name": "candidateID",
          "type": "uint8"
        }
      ],
      "name": "getCandidate",
      "outputs": [
        {
          "internalType": "string",
          "name": "",
          "type": "string"
        },
        {
          "internalType": "string",
          "name": "",
          "type": "string"
        },
        {
          "internalType": "string",
          "name": "",
          "type": "string"
        },
        {
          "internalType": "uint8",
          "name": "",
          "type": "uint8"
        },
        {
          "internalType": "string",
          "name": "",
          "type": "string"
        }
      ],
      "stateMutability": "view",
      "type": "function"
    },
    {
      "inputs": [],
      "name": "getElectionDetails",
      "outputs": [
        {
          "internalType": "string",
          "name": "",
          "type": "string"
        },
        {
          "internalType": "string",
          "name": "",
          "type": "string"
        }
      ],
      "stateMutability": "view",
      "type": "function"
    },
    {
      "inputs": [],
      "name": "getNumOfCandidates",
      "outputs": [
        {
          "internalType": "uint8",
          "name": "",
          "type": "uint8"
        }
      ],
      "stateMutability": "view",
      "type": "function"
    },
    {
      "inputs": [],
      "name": "getNumOfVoters",
      "outputs": [
        {
          "internalType": "uint8",
          "name": "",
          "type": "uint8"
        }
      ],
      "stateMutability": "view",
      "type": "function"
    },
    {
      "inputs": [
        {
          "internalType": "uint8",
          "name": "candidateID",
          "type": "uint8"
        },
        {
          "internalType": "string",
          "name": "e",
          "type": "string"
        }
      ],
      "name": "vote",
      "outputs": [],
      "stateMutability": "nonpayable",
      "type": "function"
    },
    {
      "inputs": [],
      "name": "winnerCandidate",
      "outputs": [
        {
          "internalType": "uint8",
          "name": "",
          "type": "uint8"
        }
      ],
      "stateMutability": "view",
      "type": "function"
    }
  ],
  "bytecode": "0x608060405234801561001057600080fd5b50604051611ba4380380611ba483398181016040528101906100329190610288565b826000806101000a81548173ffffffffffffffffffffffffffffffffffffffff021916908373ffffffffffffffffffffffffffffffffffffffff16021790555081600190816100819190610534565b5080600290816100919190610534565b506001600360006101000a81548160ff021916908315150217905550505050610606565b6000604051905090565b600080fd5b600080fd5b600073ffffffffffffffffffffffffffffffffffffffff82169050919050565b60006100f4826100c9565b9050919050565b610104816100e9565b811461010f57600080fd5b50565b600081519050610121816100fb565b92915050565b600080fd5b600080fd5b6000601f19601f8301169050919050565b7f4e487b7100000000000000000000000000000000000000000000000000000000600052604160045260246000fd5b61017a82610131565b810181811067ffffffffffffffff8211171561019957610198610142565b5b80604052505050565b60006101ac6100b5565b90506101b88282610171565b919050565b600067ffffffffffffffff8211156101d8576101d7610142565b5b6101e182610131565b9050602081019050919050565b60005b8381101561020c5780820151818401526020810190506101f1565b60008484015250505050565b600061022b610226846101bd565b6101a2565b9050828152602081018484840111156102475761024661012c565b5b6102528482856101ee565b509392505050565b600082601f83011261026f5761026e610127565b5b815161027f848260208601610218565b91505092915050565b6000806000606084860312156102a1576102a06100bf565b5b60006102af86828701610112565b935050602084015167ffffffffffffffff8111156102d0576102cf6100c4565b5b6102dc8682870161025a565b925050604084015167ffffffffffffffff8111156102fd576102fc6100c4565b5b6103098682870161025a565b9150509250925092565b600081519050919050565b7f4e487b7100000000000000000000000000000000000000000000000000000000600052602260045260246000fd5b6000600282049050600182168061036557607f821691505b6020821081036103785761037761031e565b5b50919050565b60008190508160005260206000209050919050565b60006020601f8301049050919050565b600082821b905092915050565b6000600883026103e07fffffffffffffffffffffffffffffffffffffffffffffffffffffffffffffffff826103a3565b6103ea86836103a3565b95508019841693508086168417925050509392505050565b6000819050919050565b6000819050919050565b600061043161042c61042784610402565b61040c565b610402565b9050919050565b6000819050919050565b61044b83610416565b61045f61045782610438565b8484546103b0565b825550505050565b600090565b610474610467565b61047f818484610442565b505050565b5b818110156104a35761049860008261046c565b600181019050610485565b5050565b601f8211156104e8576104b98161037e565b6104c284610393565b810160208510156104d1578190505b6104e56104dd85610393565b830182610484565b50505b505050565b600082821c905092915050565b600061050b600019846008026104ed565b1980831691505092915050565b600061052483836104fa565b9150826002028217905092915050565b61053d82610313565b67ffffffffffffffff81111561055657610555610142565b5b610560825461034d565b61056b8282856104a7565b600060209050601f83116001811461059e576000841561058c578287015190505b6105968582610518565b8655506105fe565b601f1984166105ac8661037e565b60005b828110156105d4578489015182556001820191506020850194506020810190506105af565b868310156105f157848901516105ed601f8916826104fa565b8355505b6001600288020188555050505b505050505050565b61158f806106156000396000f3fe608060405234801561001057600080fd5b50600436106100885760003560e01c8063b224c40a1161005b578063b224c40a14610119578063cde9370f14610135578063e8685ba114610169578063ed836bc31461018757610088565b806342b03cc91461008d57806365fc783c146100a95780636d6277f4146100c7578063a15148d1146100fb575b600080fd5b6100a760048036038101906100a29190610e06565b6101a6565b005b6100b1610336565b6040516100be9190610ef9565b60405180910390f35b6100e160048036038101906100dc9190610f40565b61034d565b6040516100f2959493929190610fec565b60405180910390f35b6101036105b0565b6040516101109190610ef9565b60405180910390f35b610133600480360381019061012e919061105b565b61070e565b005b61014f600480360381019061014a9190610f40565b610888565b604051610160959493929190610fec565b60405180910390f35b610171610b6e565b60405161017e9190610ef9565b60405180910390f35b61018f610b85565b60405161019d9291906110b7565b60405180910390f35b60008054906101000a900473ffffffffffffffffffffffffffffffffffffffff1673ffffffffffffffffffffffffffffffffffffffff163373ffffffffffffffffffffffffffffffffffffffff1614610234576040517f08c379a000000000000000000000000000000000000000000000000000000000815260040161022b9061113a565b60405180910390fd5b60006006600081819054906101000a900460ff168092919061025590611189565b91906101000a81548160ff021916908360ff16021790555090506040518060a00160405280868152602001858152602001848152602001600060ff16815260200183815250600460008360ff1660ff16815260200190815260200160002060008201518160000190816102c891906113c8565b5060208201518160010190816102de91906113c8565b5060408201518160020190816102f491906113c8565b5060608201518160030160006101000a81548160ff021916908360ff160217905550608082015181600401908161032b91906113c8565b509050505050505050565b6000600660019054906101000a900460ff16905090565b6004602052806000526040600020600091509050806000018054610370906111e1565b80601f016020809104026020016040519081016040528092919081815260200182805461039c906111e1565b80156103e95780601f106103be576101008083540402835291602001916103e9565b820191906000526020600020905b8154815290600101906020018083116103cc57829003601f168201915b5050505050908060010180546103fe906111e1565b80601f016020809104026020016040519081016040528092919081815260200182805461042a906111e1565b80156104775780601f1061044c57610100808354040283529160200191610477565b820191906000526020600020905b81548152906001019060200180831161045a57829003601f168201915b50505050509080600201805461048c906111e1565b80601f01602080910402602001604051908101604052809291908181526020018280546104b8906111e1565b80156105055780601f106104da57610100808354040283529160200191610505565b820191906000526020600020905b8154815290600101906020018083116104e857829003601f168201915b5050505050908060030160009054906101000a900460ff169080600401805461052d906111e1565b80601f0160208091040260200160405190810160405280929190818152602001828054610559906111e1565b80156105a65780601f1061057b576101008083540402835291602001916105a6565b820191906000526020600020905b81548152906001019060200180831161058957829003601f168201915b5050505050905085565b60008060009054906101000a900473ffffffffffffffffffffffffffffffffffffffff1673ffffffffffffffffffffffffffffffffffffffff163373ffffffffffffffffffffffffffffffffffffffff1614610641576040517f08c379a00000000000000000000000000000000000000000000000000000000081526004016106389061113a565b60405180910390fd5b6000600460008060ff16815260200190815260200160002060030160009054906101000a900460ff169050600080600190505b600660009054906101000a900460ff1660ff168160ff16101561070557600460008260ff1660ff16815260200190815260200160002060030160009054906101000a900460ff1660ff168360ff1610156106f857600460008260ff1660ff16815260200190815260200160002060030160009054906101000a900460ff1692508091505b8080600101915050610674565b50809250505090565b60058160405161071e91906114d6565b908152602001604051809103902060000160019054906101000a900460ff161561077d576040517f08c379a000000000000000000000000000000000000000000000000000000000815260040161077490611539565b60405180910390fd5b60405180604001604052808360ff168152602001600115158152506005826040516107a891906114d6565b908152602001604051809103902060008201518160000160006101000a81548160ff021916908360ff16021790555060208201518160000160016101000a81548160ff0219169083151502179055509050506006600181819054906101000a900460ff168092919061081990611189565b91906101000a81548160ff021916908360ff16021790555050600460008360ff1660ff168152602001908152602001600020600301600081819054906101000a900460ff168092919061086b90611189565b91906101000a81548160ff021916908360ff160217905550505050565b606080606060006060600460008760ff1660ff168152602001908152602001600020600001600460008860ff1660ff168152602001908152602001600020600101600460008960ff1660ff168152602001908152602001600020600201600460008a60ff1660ff16815260200190815260200160002060030160009054906101000a900460ff16600460008b60ff1660ff168152602001908152602001600020600401848054610937906111e1565b80601f0160208091040260200160405190810160405280929190818152602001828054610963906111e1565b80156109b05780601f10610985576101008083540402835291602001916109b0565b820191906000526020600020905b81548152906001019060200180831161099357829003601f168201915b505050505094508380546109c3906111e1565b80601f01602080910402602001604051908101604052809291908181526020018280546109ef906111e1565b8015610a3c5780601f10610a1157610100808354040283529160200191610a3c565b820191906000526020600020905b815481529060010190602001808311610a1f57829003601f168201915b50505050509350828054610a4f906111e1565b80601f0160208091040260200160405190810160405280929190818152602001828054610a7b906111e1565b8015610ac85780601f10610a9d57610100808354040283529160200191610ac8565b820191906000526020600020905b815481529060010190602001808311610aab57829003601f168201915b50505050509250808054610adb906111e1565b80601f0160208091040260200160405190810160405280929190818152602001828054610b07906111e1565b8015610b545780601f10610b2957610100808354040283529160200191610b54565b820191906000526020600020905b815481529060010190602001808311610b3757829003601f168201915b505050505090509450945094509450945091939590929450565b6000600660009054906101000a900460ff16905090565b60608060016002818054610b98906111e1565b80601f0160208091040260200160405190810160405280929190818152602001828054610bc4906111e1565b8015610c115780601f10610be657610100808354040283529160200191610c11565b820191906000526020600020905b815481529060010190602001808311610bf457829003601f168201915b50505050509150808054610c24906111e1565b80601f0160208091040260200160405190810160405280929190818152602001828054610c50906111e1565b8015610c9d5780601f10610c7257610100808354040283529160200191610c9d565b820191906000526020600020905b815481529060010190602001808311610c8057829003601f168201915b50505050509050915091509091565b6000604051905090565b600080fd5b600080fd5b600080fd5b600080fd5b6000601f19601f8301169050919050565b7f4e487b7100000000000000000000000000000000000000000000000000000000600052604160045260246000fd5b610d1382610cca565b810181811067ffffffffffffffff82111715610d3257610d31610cdb565b5b80604052505050565b6000610d45610cac565b9050610d518282610d0a565b919050565b600067ffffffffffffffff821115610d7157610d70610cdb565b5b610d7a82610cca565b9050602081019050919050565b82818337600083830152505050565b6000610da9610da484610d56565b610d3b565b905082815260208101848484011115610dc557610dc4610cc5565b5b610dd0848285610d87565b509392505050565b600082601f830112610ded57610dec610cc0565b5b8135610dfd848260208601610d96565b91505092915050565b60008060008060808587031215610e2057610e1f610cb6565b5b600085013567ffffffffffffffff811115610e3e57610e3d610cbb565b5b610e4a87828801610dd8565b945050602085013567ffffffffffffffff811115610e6b57610e6a610cbb565b5b610e7787828801610dd8565b935050604085013567ffffffffffffffff811115610e9857610e97610cbb565b5b610ea487828801610dd8565b925050606085013567ffffffffffffffff811115610ec557610ec4610cbb565b5b610ed187828801610dd8565b91505092959194509250565b600060ff82169050919050565b610ef381610edd565b82525050565b6000602082019050610f0e6000830184610eea565b92915050565b610f1d81610edd565b8114610f2857600080fd5b50565b600081359050610f3a81610f14565b92915050565b600060208284031215610f5657610f55610cb6565b5b6000610f6484828501610f2b565b91505092915050565b600081519050919050565b600082825260208201905092915050565b60005b83811015610fa7578082015181840152602081019050610f8c565b60008484015250505050565b6000610fbe82610f6d565b610fc88185610f78565b9350610fd8818560208601610f89565b610fe181610cca565b840191505092915050565b600060a08201905081810360008301526110068188610fb3565b9050818103602083015261101a8187610fb3565b9050818103604083015261102e8186610fb3565b905061103d6060830185610eea565b818103608083015261104f8184610fb3565b90509695505050505050565b6000806040838503121561107257611071610cb6565b5b600061108085828601610f2b565b925050602083013567ffffffffffffffff8111156110a1576110a0610cbb565b5b6110ad85828601610dd8565b9150509250929050565b600060408201905081810360008301526110d18185610fb3565b905081810360208301526110e58184610fb3565b90509392505050565b7f4572726f723a204163636573732044656e6965642e0000000000000000000000600082015250565b6000611124601583610f78565b915061112f826110ee565b602082019050919050565b6000602082019050818103600083015261115381611117565b9050919050565b7f4e487b7100000000000000000000000000000000000000000000000000000000600052601160045260246000fd5b600061119482610edd565b915060ff82036111a7576111a661115a565b5b600182019050919050565b7f4e487b7100000000000000000000000000000000000000000000000000000000600052602260045260246000fd5b600060028204905060018216806111f957607f821691505b60208210810361120c5761120b6111b2565b5b50919050565b60008190508160005260206000209050919050565b60006020601f8301049050919050565b600082821b905092915050565b6000600883026112747fffffffffffffffffffffffffffffffffffffffffffffffffffffffffffffffff82611237565b61127e8683611237565b95508019841693508086168417925050509392505050565b6000819050919050565b6000819050919050565b60006112c56112c06112bb84611296565b6112a0565b611296565b9050919050565b6000819050919050565b6112df836112aa565b6112f36112eb826112cc565b848454611244565b825550505050565b600090565b6113086112fb565b6113138184846112d6565b505050565b5b818110156113375761132c600082611300565b600181019050611319565b5050565b601f82111561137c5761134d81611212565b61135684611227565b81016020851015611365578190505b61137961137185611227565b830182611318565b50505b505050565b600082821c905092915050565b600061139f60001984600802611381565b1980831691505092915050565b60006113b8838361138e565b9150826002028217905092915050565b6113d182610f6d565b67ffffffffffffffff8111156113ea576113e9610cdb565b5b6113f482546111e1565b6113ff82828561133b565b600060209050601f8311600181146114325760008415611420578287015190505b61142a85826113ac565b865550611492565b601f19841661144086611212565b60005b8281101561146857848901518255600182019150602085019450602081019050611443565b868310156114855784890151611481601f89168261138e565b8355505b6001600288020188555050505b505050505050565b600081905092915050565b60006114b082610f6d565b6114ba818561149a565b93506114ca818560208601610f89565b80840191505092915050565b60006114e282846114a5565b915081905092915050565b7f4572726f723a596f752063616e6e6f7420646f75626c6520766f746500000000600082015250565b6000611523601c83610f78565b915061152e826114ed565b602082019050919050565b6000602082019050818103600083015261155281611516565b905091905056fea2646970667358221220db8f0f656e8b775a8148e99adc4309ed9d3837b913fe8a2c35eb367b6388a3db64736f6c634300081c0033",
  "linkReferences": {},
  "deployedLinkReferences": {}
}